S02B00007A69676265655F626C655F736C656570795F746F5F736C656570795F7368616465735F323032352D7C
S3150800600008040020798C0108C1ED0308C5ED0308D2
S31508006010F3370108C9ED0308D1ED0308F337010882
S31508006020F3370108F3370108F3370108C982050871
S31508006030D5ED03088CCB05086D820508CFB0050899
S31508006040F3370108F3370108F3370108D96B01085C
S31508006050F3370108F3370108F3370108F337010866
S31508006060F3370108F3370108F3370108F337010856
S31508006070F3370108F3370108F337010825EC01085F
S31508006080F3370108F3370108F3370108F337010836
S31508006090B197010849970108F3370108F337010852
S315080060A0F3370108F33701082D390108F3370108DA
S315080060B0F3370108F337010809390108E5380108FB
S315080060C0F3370108F337010891F20408F33701089A
S315080060D0F1FC04086D67050869670508D1F404082A
S315080060E08367050871670508C1FC04087567050814
S315080060F031FD040805D104089DFD0408F5D30408FC
S31508006100F3370108F3370108F3370108F3370108B5
S31508006110F3370108F3370108F3370108F3370108A5
S31508006120F3370108F3370108F3370108F337010895
S31508006130F3370108F3370108F3370108F337010885
S31108006140F3370108F3370108F3370108AC
S3150800614CF0B5114A114C124E00F00105E3695F07D0
S3150800615C13D40DB9334213D103EA00078F4207D182
S3150800616C0B4A1A40002A0CBF00206FF00100F0BD44
S3150800617C013AEBD16FF00200F9E74FF0FF30F6E782
S3150800618C6FF00100F3E700BF8096980000000350FB
S3150800619C020001002DE9F84F16464FF40032274B42
S315080061AC274D9A66EB69012203F4803841F6713360
S315080061BC0746EB63234BDFF89490DA600EB930464A
S315080061CC29E007F5005404EA09046F61E41BEB693E
S315080061DCB44228BF34465B072DD48B465BF8043B88
S315080061EC01EB040AAB61D3450ED10423002121200F
S315080061FC2B61FFF7A5FF70B92120FFF7A1FF50B956
S3150800620C59462744361BD9E708210846FFF798FF55
S3150800621C68B104232B6101220B4BDA60B8F1000F2D
S3150800622C03D00022A3F50053DA63BDE8F88F5BF8B8
S3150800623C043BAB61D7E74FF0FF30ECE7009000501A
S3150800624C00000350001003500020035000E0FFFF2D
S31508006260013800D0FCE77047D0E9023253F82230F3
S31508006270034A1B78003B18BF01231370704700BF01
S315080062804C7B00207047D0E9023253F82230034A8B
S315080062901B78003B18BF0123137070478845002000
S315080062A00B6870B5DA7B3ABBDB7C2BBB134A144C04
S315080062B05068247801684D79A54201D0002070BD48
S315080062C00D79117AC68802F10A00DCB2A1420AD811
S315080062D0052CF3D0A142F1D102EB830301315E8193
S315080062E01D731172EAE70488B44202D18478AC427D
S315080062F0E4D001330430E8E78120E0E78845002050
S31508006300E47B0020D0E9023253F822301A68014BA8
S315080063105A607047E47B002008B555F068FABDE876
S31508006320084037F0C1BA07B5D0E9023253F822302F
S315080063301A78292A0FD80949094B01EB4201C98B5A
S3150800634053F82230009107490020002B08BF0B465E
S3150800635005491DF082FB03B05DF804FB8845002063
S3150800636024360608D8170608DC1706082DE9F3416F
S3150800637000240C4E0C4DDFF838800C4F56F8043BC1
S3150800638035F8022B002B08BF4346009239462246B1
S31508006390002001341DF061FB2A2CEFD102B0BDE8C4
S315080063A0F08100BF24360608FA450020DC170608E7
S315080063B0D81706082DE9F34100240C4E0C4DDFF8DA
S315080063C038800C4F56F8043B35F8022B002B08BFD3
S315080063D04346009239462246002001341DF03DFB13
S315080063E02A2CEFD102B0BDE8F08100BF243606089A
S315080063F0A6450020DC170608D817060802460249F3
S3150800640000201DF02ABB00BFE71706080020014937
S315080064101DF023BB1118060807B5D0E9023103EBB6
S31508006420810253F82130526818780B4B0128A3F1E2
S31508006430040108BF0B4612684FF000001A6000926C
S31508006440064A074B074918BF1346074A1DF005FBBE
S3150800645003B05DF804FB00BFF07B00204618060871
S315080064603E18060850180608D036060817F082BAED
S3150800647070B5D0E902456B1EDBB254F8230003223F
S315080064801B4950F0F5F954F8253004EB85041978C2
S3150800649063681A78A2F10B030F2B05D9154900205A
S315080064A0BDE870401DF0D9BA01290FD1124C9140B0
S315080064B0A36840B90B43114AA3600020BDE87040A9
S315080064C00F491DF0CABA23EA0103F4E702290CD1E1
S315080064D00123094903FA02F2CB6818B91343094A9A
S315080064E0CB60EAE723EA0203F9E70A460649D6E754
S315080064F049FA05086A180608E47B00208018060889
S31508006500881806089B180608A518060838B5002432
S31508006510064D54F024FD45F8240006341E2CF8D107
S31508006520BDE83840002002491DF097BA20440020F3
S31508006530B81806081FB5044602AA00200DF1060180
S3150800654037F046F94FF6FF73BDF806209A4206D093
S31508006550082220460DEB020150F08AF9A8B102AADA
S3150800656001200DF1060137F033F94FF6FF73BDF838
S3150800657006209A420BD0082220460DEB020150F065
S3150800658077F9002814BFFF20012004B010BDFF20B2
S31508006590FBE7002307B519466A461BF0F6FC684672
S315080065A0FFF7C8FFFF28024606D10020064903B0B8
S315080065B05DF804EB1DF051BA0020044903B05DF8FC
S315080065C004EB1DF04ABA00BFE4180608F4180608DA
S315080065D00023F0B587B0194602AA1BF0D6FC0025A1
S315080065E0FF244FF6FF77EEB2304604AA0DF10601F6
S315080065F037F0EEF8BDF80630BB4211D0082204A9E0
S315080066000DEB020050F034F968B93446134B2344B5
S3150800661093F8C620013283F8C62017E00125E2E781
S31508006620FF2C08BF3446002DF8D0FF2C06D10020D9
S315080066300B4907B0BDE8F0401DF00FBA4FF6FD72E2
S31508006640204602A91BF09CFE012CDFD92246002019
S31508006650044907B0BDE8F0401DF0FFB988450020A1
S31508006660131906082F190608002310B586B019460F
S3150800667002AA1BF08AFC02A8FFF75CFF0128044661
S3150800668006D91049002006B0BDE810401DF0E5B94E
S315080066900D4A024492F8C6306BB9204604AA0DF199
S315080066A0060137F095F84FF6FF72204604A91BF04D
S315080066B067FE0649E6E7013BDBB282F8C630002BE7
S315080066C0F7D1EAE74E190608884500206319060837
S315080066D008B531F0E1FABDE808406BE608B531F0D7
S315080066E0B9FABDE8084065E638B5D0E9023253F88C
S315080066F0221003EB82035B680D781C8800200A4988
S315080067001DF0ABF9214628461CF0DEF9024628B1F1
S31508006710BDE83840002005491DF09FB9044800EB44
S315080067204500A0F8724038BD711906088B1906088D
S3150800673088450020F8B51BF0EDFE182205460D4BDE
S315080067400D4C02FB00339E7D04F1300720781BF0C8
S3150800675003FBA84208D1A06834F056FB03691BB1B5
S3150800676063799E4238BF1E460C34BC42EED1304691
S31508006770F8BD00BF244300208C7B002010B51CF018
S3150800678077F902280DD11BF0ADFD044648B11BF080
S31508006790C1FE2346BDE810400246024900201DF00E
S315080067A05CB910BDA71906087FB5D0E9023253F8BF
S315080067B02230184E1A78184B00251A703368174C71
S315080067C01A71FF225A71012203211046144B84F8CC
S315080067D0C85025721BF0B6F9124B4FF6FF711B68AD
S315080067E0114A1B8803950125CDE901511268062037
S315080067F00092326834F0BAFB40B940F6B8310B481B
S3150800680034F016FB84F8C85004B070BD04B0BDE877
S315080068107040F3E53C070020E47B00208845002013
S3150800682095F9050808440020B043002024420020BA
S31508006830094B1B7C052B02D00378032B01D00120C2
S31508006840DCE58168054A0B680548C2F8C9304B681B
S31508006850C2F8CD3034F0FCBAE47B0020884500202D
S31508006860244200202DE9FF41404D414834F0E9FA21
S3150800687095F8C840022C15D0032C36D0012C05D02B
S315080068802124204604B0BDE8F041B7E5297A00295D
S31508006890F7D00223374A85F8C830137C052B09D16F
S315080068A000231374334B1B7C052B0FD1032385F868
S315080068B0C830E5E70133DBB29942137403D10523E7
S315080068C013740024DDE7052BECD1FAE705EB830307
S315080068D0588929491DF07CF90323044685F8C830F0
S315080068E00028CED104B0BDE8F081224B1B7C05EB15
S315080068F083035F891C7B1BF081FE064640B91F4A4D
S315080069001F491DF0AAF80123022485F8C830B8E704
S315080069104FF004083B0A8DF80E304FF48A5203AB49
S3150800692041463846CDF800808DF80F408DF80D7039
S315080069301BF06CFB134B04461B7848B103460F4A01
S31508006940002011491DF089F8012385F8C83098E719
S3150800695003F07F0300933946434630460B4A1DF041
S315080069600DF9012385F8C830BCE700BF884500202B
S3150800697024420020E47B0020316800084EE905081F
S3150800698059E90508E63E0020BB19060851810008AA
S3150800699030B500240B4D85B06946E0B21BF030FCDB
S315080069A050B99DF80030032B06D12946BDF80530AD
S315080069B09DF801201DF051F80134102CECD105B0DA
S315080069C030BD00BFEE1906087FB5002013491DF03B
S315080069D044F81BF09FFD00240546E6B2694630469A
S315080069E01BF00EFCA0B99DF80030032B10D19DF8C2
S315080069F00130FF2B03D09DF80D30AB4208D130464D
S31508006A001BF0EAFB024618B1002005491DF025F8DF
S31508006A100134102CE1D104B070BD00BF001A06087D
S31508006A20151A0608F0B589B01F460F9B05460E468F
S31508006A301446C3B102280AD104A9F0B21BF0E0FB40
S31508006A4088B99DF8113023719DF8143063710023BD
S31508006A50CDE9023301930E9B2246009331463B460D
S31508006A60284634F083FA09B0F0BD1FB5D0E90232E2
S31508006A7053F8223003211C78B4232046ADF80E3093
S31508006A801AF0B4FD88B12123002200930321204681
S31508006A900DF10E031AF02CFE0090054B0020054A56
S31508006AA005491CF0DAFF04B010BD8620F4E700BFE4
S31508006AB03C1A0608491A06085E1A06081FB5642312
S31508006AC06331B1FBF3F121230122ADF80E100093D7
S31508006AD008210DF10E031AF00BFE024618B100202C
S31508006AE002491CF0BAFF05B05DF804FB6D1A0608EA
S31508006AF037B50868C37B002B62D1C37C032B5FD8EC
S31508006B00DFE803F00249113D6A462E490EF0E0FD22
S31508006B100446002854D1BDF802309DF800202A49C1
S31508006B201CF09BFF18E06A4628490EF0D1FD044682
S31508006B30002845D19DF801309DF8002024491DF014
S31508006B40EFFB244D9DF80120E3B29A4207D80020B6
S31508006B5021491CF082FF0024204603B030BD01986D
S31508006B60630003F4FF730222002118441AF0F3FDB0
S31508006B702946024600201DF0D3FB0134E2E76A46A7
S31508006B8016490EF0A5FD0446D0B9BDF802309DF8A9
S31508006B9000201349C4E76A4612490EF099FD0446D7
S31508006BA070B9BDF802309DF800200F491DF0B8FBFA
S31508006BB0019831F043F820460C491CF04EFFCBE70C
S31508006BC08124C9E7DD3606088E1A0608E236060865
S31508006BD0B21A0608E11A060895F90508E9360608FC
S31508006BE0EB1A0608EE360608121B060876B90508DB
S31508006BF01FB51823002401930DF10F0322460093B5
S31508006C00042140238DF80F401AF062FD024618B1A0
S31508006C10204602491CF021FF04B010BD3A1B0608A5
S31508006C201FB5212301930DF10E03ADF80E10009345
S31508006C300022402303211AF04BFD044620B10246E8
S31508006C40034900201CF009FF204604B010BD00BF10
S31508006C50591B06082DE9F04100240D4E0D4FDFF8AB
S31508006C6040803278E3B29A4201D8BDE8F0811B0130
S31508006C70FD5C013428461CF06DFF074B2A460028A8
S31508006C8008BF4346054900201CF0E7FEE9E700BFB8
S31508006C90BC3E002090070020791B0608841B0608C6
S31508006CA07E1B060837F000B809B936F0FDBF7047F5
S31508006CB02DE9F04F0D6885B0EB7B002B40F028815D
S31508006CC0EB7C062B00F22481DFE813F0070098001E
S31508006CD07200610086002201250028468D4902AA15
S31508006CE00EF0F6FC0446002840F01281BDF80A3082
S31508006CF09DF80C20ED7C8849CDE90032874A9DF83D
S31508006D000830402D08BF0A4685491CF0A6FE2046D5
S31508006D1005B0BDE8F08F2E7DAA89731C9A42C0F093
S31508006D20F78099B2B31C9A42C0F0F280AC68351D60
S31508006D30AA4214F80180C0F0EB80A75D19462046E8
S31508006D401AF009FD87B90536655D34440090434657
S31508006D503A46002073491DF0E3FA47B100206F490F
S31508006D601CF07BFE0024D2E70024FF25EEE72A4626
S31508006D7038466D491DF0D4FA6C4E2544A542EDD02F
S31508006D803146002014F8012B1DF0CAFAF6E728460A
S31508006D90674902AA0EF09CFC0446002840F0B88019
S31508006DA0BDF80A309DF8082062491CF056FEAEE789
S31508006DB02846614902AA0EF08BFC0446002840F0DA
S31508006DC0A7809DF80C309DF8082000935B49BDF814
S31508006DD00A301CF042FE9AE72846594902AA0EF0E4
S31508006DE077FC0446002840F093809DF80C309DF807
S31508006DF0082000935349BDF80A30EAE72E7DB5F816
S31508006E000C80711C8845C0F08380F71CB8457FD379
S31508006E10AC68424620461AF09EFC331D98458246C9
S31508006E2076D3A55D14F807B0002D6CD119464246F5
S31508006E3020461AF090FC0636B0458146A35D04EB61
S31508006E4006075BD9FF2B53D12B46013356FA83F637
S31508006E5026442B460020CDE900AB304A3A491DF0BE
S31508006E605FFA002D7FF47AAF384B39495B6800200A
S31508006E701A7D9C893B78073CFF2B18BF1D46A41A30
S31508006E804A461DF04DFA384630F0D8FE0020314902
S31508006E90641B1DF045FA0025DFF8C080DFF8C090B6
S31508006EA0DFF8C0A0A4B2AF1CBC427FF757AF294693
S31508006EB0224630461AF04FFCBFB2F75D03351FFA7B
S31508006EC085FB02463B46414600200BEB07051DF0B5
S31508006ED027FAA54206DC4B463A46002006EB0B018C
S31508006EE01DF04EFA514600201DF01AFAADB2DAE747
S31508006EF019499A199045D8BF0F46A6E7FF2B08BF30
S31508006F002B46154FA1E700264FF6FF793746A0E72F
S31508006F108124FCE6F5360608A71B060895F9050838
S31508006F20B01B0608DE1B0608D71A060869F305080B
S31508006F30FC360608141C0608013706083F1C060816
S31508006F40083706086E1C06089C1C0608884500209B
S31508006F5076250608CB1C06085A460020CE1C0608CD
S31508006F6099EC0508D53E060870B500220D4608219D
S31508006F7006461AF099FA044650B130461AF008FB4C
S31508006F8030B12946A06833F053FF00236371A3711B
S31508006F9070BD0022082136F097BC08B5082133F0E9
S31508006FA0F4FBFF281DBF00B2034B00EB8000002056
S31508006FB018BF03EB800008BD5C46002003297FB597
S31508006FC0064615461C4602D9012004B070BD0621A6
S31508006FD01AF00CFB0028F7D001230F220093082192
S31508006FE030460DF10F031CF0A7FD024630B1002014
S31508006FF013491CF032FD00238DF80F3001230022BF
S315080070000093062130460DF10E031CF095FD02464D
S3150800701020B100200B491CF020FDD5E79DF80E3065
S31508007020002BD1D1FF2D06D1FF2C06D19DF80F00DC
S3150800703000F00100C9E7EB07F8D504F00100C4E742
S31508007040DF1C0608081D06082DE9F34106460F460B
S3150800705090461D461AF0CAFA044680B19DF82430B7
S315080070604246009339463046089B1CF065FD38B108
S3150800707000902B460020044A04491CF0EEFC00242C
S31508007080204602B0BDE8F081DBF905082F1D060889
S315080070902DE9F04FDFF8F4801F46D8F80430824611
S315080070A01B6885B05E79894630461446FFF775FF3A
S315080070B00546002864D03A46514630469DF8383091
S315080070C0FFF77CFF0746002852D03046FFF761FFDE
S315080070D0012300220093082130460DF10F031CF00E
S315080070E02BFD834680B10246274900201CF0B5FCDB
S315080070F0D8F804301B685B88082B02D1584636F04E
S31508007100CBFB05B0BDE8F08F85F800A09DF80F30E1
S3150800711085F801904B452ED8BAF1040F06D1B9F17E
S31508007120000118BF0121304600F0FAF86B789DF887
S315080071300F2093421CD09B1ADBB24FF6FF72944283
S315080071401DBF4FF47A7202FB04F10A22002118BF10
S31508007150B1FBF2F1E960B1FBF3F100232B61EB70AF
S31508007160BDF83C303046AF70A960EB80FFF7FCFEF7
S315080071704FF0000BBCE7A3EB09030746DBB2DCE7DD
S315080071804FF0010BB4E700BF441D060888450020F0
S31508007190F0B50123002785B000930E463A4608212C
S315080071A00DF10F0305468DF80E701CF0C5FC04465C
S315080071B030B10246384613491CF04FFC05B0F0BD05
S315080071C09DF80F70B6B12023024600930821284681
S315080071D00DF10E031AF08CFA024610B12046094941
S315080071E0EAE7FF234FF6FF723946CDE90032FFF78B
S315080071F04FFFE3E7FF234FF6FF729DF80E10019746
S315080072000093F4E7441D06082DE9F0410B4686B0C5
S3150800721004460F4616463D49024600201CF01DFC52
S315080072204FF000080123CDE902380DF11703CDE927
S31508007230008342464023062120461CF051FC0546A1
S3150800724040B10246324940461CF007FC284606B0C3
S31508007250BDE8F0819DF817202AB937B900202D49D5
S315080072601CF0FBFBF2E7012FF8D082F001030020A7
S3150800727029498DF816301CF0F0FB9DF816300DF1F3
S31508007280160733B310230022CDE9007306214023E5
S3150800729020461AF01DFA074630B102461F4900205B
S315080072A01CF0DBFB3D46D1E74EB9082120461AF013
S315080072B09DF920B120469DF81610FFF769FF0521B4
S315080072C020461AF093F90028C0D0204636F03CFB39
S315080072D0BCE746B9082120461AF088F918B13146A4
S315080072E02046FFF755FF10230022CDE9007306213B
S315080072F0402320461AF0ECF906460028DFD002465D
S31508007300064900201CF0A9FB35469FE7641D0608C0
S31508007310801D0608991D0608B91D0608D91D060808
S3150800732038B50C46062105461AF060F990B154B1F5
S3150800733009490020094A1CF090FB01212846BDE8AE
S315080073403840012260E704492046054A1CF085FBBF
S315080073502146F3E738BD00BFF51D0608F21D0608ED
S31508007360C11F06087FB50546FFF717FE0446002825
S3150800737000F08D80036982680821134403610123A4
S315080073800022009328460DF10E031CF0D5FB024699
S3150800739020B14C4900201CF060FB74E09DF80E20DB
S315080073A049491CF0BDFFE368E3B962780020474904
S315080073B08DF80E201CF0B4FFA3780020002B0CBF1C
S315080073C02D222B2242491CF048FB20230022009341
S315080073D0082128460DF10E031AF08AF9024658B319
S315080073E03C49D7E7A2789DF80E309AB1FF2B03D116
S315080073F0C721394850F082FA62789DF80E309A42D1
S3150800740003D8C821344850F079FA9DF80E20013285
S31508007410D2B2CBE71BB9CB212F4850F06FFA62786E
S315080074209DF80E309A4203D3CC212B4850F066FAC9
S315080074309DF80E20013AEBE7052128461AF0D6F802
S3150800744010B1284636F080FA9DF80E3061789942D8
S315080074502BD12378043B022B1BD8003918BF0121F6
S315080074602846FFF75DFF9DF80E6066B9E37853B1CD
S3150800747020230093231D0022082128461AF038F9F4
S3150800748002460028ACD100212846FFF717FB04B0B6
S3150800749070BD4FF6FF72E3889342F4D08DF80F3033
S315080074A0202300930DF10F03E5E7D4E90313C91A66
S315080074B0284689B2FFF702FB2846A168FFF754FD64
S315080074C0E5E700BF441D06081E1E0608B61E060888
S315080074D0BE1E0608C91E0608321E060808B50B6831
S315080074E0DA7B8AB9D97C01290AD0022908D059B988
S315080074F00A46064B5B681B685879FFF785FE08BD88
S31508007500024B5B681B68F7E78120F8E7884500208F
S315080075102DE9FF471D463A4B80465B6889461B683E
S3150800752017465E793046FFF738FD0446002864D0D2
S315080075302A46414630469DF83030FFF73FFD002881
S3150800754048D04FF0010A3046FFF723FD00220821F4
S315080075503046CDF800A00DF10F031CF0EDFA0546F4
S3150800756050B10246274900201CF077FA284636F023
S3150800757093F904B0BDE8F08784F80080B9F1000FEC
S3150800758004D0B9F1010F12D08525EFE79DF80F5009
S31508007590FF23ED4384F802A06370EDB261789DF88D
S315080075A00F308B4208D9FF2F16D1002118E09DF81D
S315080075B00F50A0706070F1E7B8F1050F05D10039DA
S315080075C018BF01213046FFF7ABFE62789DF80F30F1
S315080075D09A42E8D10025C9E74FF47A71B1FBF7F171
S315080075E000232361E3704FF6FF734D433046A160D5
S315080075F0E560E380FFF7B8FCECE70125B6E700BFD6
S3150800760088450020441D06082DE9F04F1D46464BC7
S3150800761081465B6885B01B688A4693F805801746DD
S315080076204046FFF7BAFC064600287BD04946404646
S315080076309DF83C309DF83820FFF7C0FC00283FD065
S315080076404FF0010B4046FFF7A4FC002208214046F4
S31508007650CDF800B00DF10F031CF06EFA044650B1D8
S315080076600246324900201CF0F8F9204636F014F993
S3150800767005B0BDE8F08F86F80090BAF1000F04D087
S31508007680BAF1010F2CD08524EFE79DF80F4086F854
S3150800769002B0C4F1FF03BB4214DAE4435FFA84FA8A
S315080076A0FF247470B9F1060F05D1211E18BF0121F8
S315080076B04046FFF735FE72789DF80F309A4209D199
S315080076C00024D2E73C44BA46E4B29DF80F30747001
S315080076D0A342E7D94FF6FF739D4209D1002513E06F
S315080076E09DF80FA0B070BA45EFD3AAEB0704EAE7F6
S315080076F04FF47A735D430A23BA45B5FBF3F503D015
S315080077000AFB05F5B5FBF7F50023B5FBFAF133617E
S31508007710F3704FF6FF734046F560B160F380FFF7EC
S3150800772023FCCDE70124A0E788450020441D060870
S31508007730F8B5104B05465B680E461B6817465C791C
S315080077402046FFF72AFC90B13B463246294620469A
S31508007750FFF734FC30B12046FFF71BFC002120461A
S31508007760FFF7ACF90020BDE8F84036F095B80120DF
S31508007770F9E700BF8845002010B5086886B0C37BC6
S31508007780002B40F0E280C37C072B00F2DE80DFE8A6
S3150800779013F008003100500073008500A000B70000
S315080077A0D3006B4904AA0DF093FF0446002840F065
S315080077B0CC809DF81530674A02939DF814306649C7
S315080077C00193BDF8123000939DF810301CF045F96E
S315080077D04FF6FF73204601939DF81530BDF8122029
S315080077E000939DF810109DF81430FFF751FC2046C1
S315080077F006B010BD594904AA0DF06AFF002840F0EA
S31508007800A4809DF81130534A554900939DF81030CD
S315080078101CF023F901209DF813309DF811200093E0
S315080078209DF810109DF81230FFF772FE6FF0FF00FA
S31508007830DEE74C4904AA0DF04BFF002840F085808E
S31508007840BDF81230434A01939DF81130464900931A
S315080078509DF810301CF001F902209DF815309DF8AE
S31508007860112001939DF814309DF810100093BDF86F
S315080078701230FFF7C9FED9E73C4904AA0DF028FFE4
S31508007880002862D1334A3A491CF0E7F803209DF8EC
S3150800789011209DF81010FFF74BFFC7E7354904AADA
S315080078A00DF016FF044600284FD1BDF81230294ABC
S315080078B0314900939DF810301CF0CFF84FF6FF724F
S315080078C0FF230420CDE900329DF81010BDF81220E0
S315080078D08BE72A4904AA0DF0FBFE002835D19DF84E
S315080078E011301C4A264900939DF810301CF0B5F853
S315080078F0FF2305209DF811209DF81010009393E7AB
S31508007900204904AA0DF0E4FEF8B9BDF81230114A70
S3150800791001939DF811301C4900939DF810301CF016
S315080079209CF8FF230620CDE900339DF81120BDF809
S3150800793012309DF810109CE70020064A13491CF0E7
S315080079408CF8FF2207201146A5E7812050E700BFE3
S315080079500F370608E91E0608FB1E0608183706082C
S315080079601F1F060821370608301F06082C37060889
S31508007970461F0608313706084D1F0608363706081B
S31508007980731F06083B370608901F0608B21F06082D
S3150800799070B5002586B040232A460821009504467E
S315080079A01AF004F800283FD003799A073CD54023FB
S315080079B04FF4804208212046009519F0F7FF98B346
S315080079C003799B0730D5FF2301268DF816300DF174
S315080079D016034FF48042CDE9005308214023204680
S315080079E0039502961CF07CF80246E8B90DF11705D6
S315080079F0CDE90260CDE900058DF81700402308217E
S31508007A0020461CF06DF878B99DF816300BB1FF2B9F
S31508007A1001D08DF8173020230022CDE90053082124
S31508007A204023204619F054FE06B070BD70B50025F7
S31508007A3086B040232A4606210095044619F0B6FF6B
S31508007A40002841D003799A073ED5402344F2030221
S31508007A5006212046009519F0A9FFA8B303799B07CC
S31508007A6032D5FE2301268DF816300DF1160344F2A1
S31508007A700302CDE9005306214023204603950296CA
S31508007A801CF02EF80246F8B90DF11705CDE902608B
S31508007A90CDE900058DF817004023062120461CF085
S31508007AA01FF888B99DF81630B34202D0022B0DD0C4
S31508007AB00BB98DF8173010230022CDE900530621A3
S31508007AC04023204619F004FE06B070BD9DF8173015
S31508007AD083F00103EDE7D0E9023253F822301A7831
S31508007AE0024B83F8FC2035F087BF00BF884500208D
S31508007AF070B5264D264B274C05F1AC0200202649C9
S31508007B001BF0ABFF002025491BF0A7FF244EA268F7
S31508007B10244900201CF004FCA0681CF085FC3146B2
S31508007B2000201BF09AFFE2681F4900201CF0F8FBB2
S31508007B30E0681E4C1CF078FC314600201BF08DFFD7
S31508007B4094F8FD20002005EB8205D5F82031184968
S31508007B501BF083FF94F80221002016491BF07DFFD5
S31508007B6094F81421002014491BF077FF94F8152186
S31508007B70124900201BF071FF1AF07AFFBDE8704029
S31508007B8002460F4900201BF068BF00BF24360608CE
S31508007B90C51F0608E47B0020CC1F0608D41F06086C
S31508007BA0D53E0608E21F0608F31F0608884500208A
S31508007BB004200608172006082B2006083D2006087C
S31508007BC04F20060870B586B001AA002111F03DF8CD
S31508007BD002AC0346224600F1100625461868596885
S31508007BE0083303C5B3422C46F7D1084C06AD1346F5
S31508007BF003CBAB42206061601A4604F10804F6D153
S31508007C000122034B83F8262106B070BD9E4600204C
S31508007C108845002010B5D0E90232002486B08DF8D8
S31508007C20044053F8221003EB8203097801A88DF863
S31508007C3005105A681288ADF806209A681288ADF8B9
S31508007C400820DA681278ADF80C40A24214BF402228
S31508007C5080228DF80A201A691288ADF810205A6910
S31508007C609B691288ADF812201B68059331F06EFDEA
S31508007C70034A0346034920461BF0EFFE06B010BD33
S31508007C8049FA05081CE8050870B5364C012304F2C4
S31508007C9027127F21222090B036F0C2FB94F82721C4
S31508007CA00323002030491BF0D8FE00242F4E304D08
S31508007CB02A232146232005AA36F0B2FB224631465E
S31508007CC000201CF02DFB9DF81420002A41D0BDF899
S31508007CD01A30002001939DF8183026490093BDF804
S31508007CE016301CF01DFB00209DF81C2022491CF0B4
S31508007CF017FB00209DF81E2020491CF011FB0020D0
S31508007D009DF820201E491CF00BFB0020BDF82630EC
S31508007D10BDF822201B491CF003FBBDF838300020B3
S31508007D200393BDF83430BDF82A2002939DF831300C
S31508007D30154901939DF82F3000939DF82D301CF0BE
S31508007D40EFFA00209DF83D309DF83B200F491CF0C6
S31508007D50E7FA2946002001341BF07FFE032CA7D141
S31508007D6010B070BD88450020652006088C200608DE
S31508007D7095F9050893200608794A06088C1D060811
S31508007D80B5200608BF200608D0200608EA200608FF
S31508007D9010B50C461AF012F808B9032C1DD11AF0C2
S31508007DA067FE042819D01AF063FE052815D00B487B
S31508007DB01AF015FC1C2802D100201AF010FC084BFA
S31508007DC01868084B1B681988074B1A6828B121B12F
S31508007DD01AB1BDE8104035F081BD10BD256A00080E
S31508007DE03C07002008440020B0430020F0B50020DE
S31508007DF020498DB01BF031FE1AF08CFB0024054695
S31508007E0023202A23214601AA36F00AFB9DF80400FE
S31508007E1070B1FF2803D019F09FFF854208D10023CF
S31508007E2021468DF8043023202A2301AA35F0E6FFDF
S31508007E300134032CE4D100240F4A012382F8274198
S31508007E407F21222002F2271235F0D8FF0B4F0C4E65
S31508007E503A78E3B29A4201D80DB0F0BD1A0106EBA2
S31508007E6003131B7BAB4203D10021B05C35F0B2FD96
S31508007E700134EDE7FC20060888450020BC3E0020BA
S31508007E809007002038B50446074D01237F2122209C
S31508007E9005F2271236F0C4FA204695F82711BDE8F0
S31508007EA0384035F097BD00BF884500202DE9F041E0
S31508007EB006460F4600258CB02A232946232001AA08
S31508007EC036F0AEFA9DF80430B34232D1BDF806302A
S31508007ED0BB422ED100231A4C29462320ADF8063082
S31508007EE08DF8043001AA2A2335F088FF01237F2163
S31508007EF0222004F2271236F093FA94F827317F21CC
S31508007F00013B222084F8273104F22712012335F099
S31508007F1075FF63687F211B68222093F8058004F2A9
S31508007F202712012336F07CFA404694F8271135F0DB
S31508007F3051FD0135032DBFD10CB0BDE8F08100BF5E
S31508007F408845002070B5064653F051FC30461AF0B5
S31508007F5043F9044628B140F60443984214BF8824DE
S31508007F608D2432460C49234600201BF076FDBC20A2
S31508007F7048F0FCFF002306714380447105461AF059
S31508007F8023FA2870284634F04DFB4FF013FE35F0DF
S31508007F908BFC204670BD00BF11210608184B194AF4
S31508007FA01B68126870B59A4205460C4604D12B46E2
S31508007FB0BDE8704008461847134E306852F0A8FBD3
S31508007FC0E8B9124B0121C3E94A54114C206852F012
S31508007FD075FE50F0FBF8256845B153F01AF80346CC
S31508007FE020B901220221284652F0C4FB206802214A
S31508007FF052F032FE3068BDE8704050F043BA70BDAA
S315080080008C0A0020642600206C2600208845002063
S31508008010702600202DE9F04F0D461446D7B0009083
S31508008020112200210CA89846DFF81CA14EF04AFC44
S31508008030DFF818B104EB45030293D8F800301C2B7F
S3150800804002D0029BA34202D157B0BDE8F08F0123AC
S315080080508DF810309AF81030394A0BEB83031B7BE6
S315080080609AF8005001938DF81430136834F8029B7F
S31508008070CDF8153053682846CDF819308DF81150CB
S31508008080ADF8129019F068FE009B8DF81D0043B9F3
S3150800809080224946284619F08FFA0028CDD0009F3D
S315080080A006E04946284619F0A1FA0028C5D0002757
S315080080B01C251026FAB2104608A903921AF0A0F851
S315080080C030B99DF8201029BB039A102E08BF164612
S315080080D00137102FEED1102E19D0C5B104A930469C
S315080080E01AF0D2F89AF8103000210BEB8303B3F894
S315080080F00A9005464FF48A7211A84EF0E3FB114820
S3150800810011A98DF84460ADF84690FFF747FFC8F807
S31508008110005092E7BDF822204A45D9D19DF824207F
S31508008120019B9A42D4D10129D2D108220DF1150119
S315080081300DF125004EF09CFB002808BF0025C7E777
S315080081405146002063060208E47B0020884500208B
S3150800815013B503460020104A9C68127C0190052A34
S3150800816003D01B78032B00D12CB9012002B0BDE83F
S315080081701040FEF743B96268217801ABFFF74AFF62
S315080081800120E268217A01ABFFF744FF034802B0F9
S31508008190BDE8104032F05CBEE47B0020244200209B
S315080081A070B5514ED0B096F8FD3003F0FB02A3F13E
S315080081B00905022AEDB263D0042B41F6041162D0F8
S315080081C0A3F108004242424152000A43ADF800209A
S315080081D0464A474802F1100152F8044B8A4240F8D1
S315080081E0044BF9D196F82621002A4ED0414B0DF1C1
S315080081F0020203F1100153F8040B8B4242F8040BF8
S31508008200F9D168461AF030FB2328044610D1012D0F
S3150800821055D80020384A39491BF01FFCBDF80030F4
S31508008220684623F40053ADF800301AF01DFB0446E7
S31508008230002C4ED121464FF48A720BA84EF042FB11
S315080082404FF40C732E480BA9ADF82C30FFF7A6FE99
S315080082500C9C002C3DD12B4E737C0BB135F07EFA6D
S3150800826001239D42737434D8274A0BAB10685168B2
S3150800827003C326490BA81AF0E1FD68B3192428E0C0
S3150800828043F604119CE702229FE7042B0DD0082B26
S315080082900BD01F4B0DF1020203F1100153F8040B2A
S315080082A08B4242F8040BF9D1ABE7104A0DF10203F1
S315080082B052F8040B8A4243F8040BF9D1A1E796F861
S315080082C0FD3003F0FB03022B03D1002011491BF0FC
S315080082D0C4FB204650B070BD05490BA81AF0AEFD88
S315080082E004460028CAD1F4E788450020D4210608A8
S315080082F0B84600209E460020D03606082B210608E0
S31508008300A10E0208E47B00205AC00508703706084B
S31508008310E52106088621060808B51AF0FFFA02467E
S3150800832028B1BDE80840002001491BF096BB08BDEE
S31508008330F6210608F0E708B51AF0B4FB024628B19C
S31508008340BDE80840002005491BF087BB5422BDE85C
S315080083500840FF2102484EF0B5BA00BF0E220608B3
S31508008360FA450020E7E708B51AF0D4F80022044BCE
S31508008370034483F840210348BDE8084032F061BD54
S3150800838088450020A441002013B51AF0C3F8114C03
S315080083900246044494F84031032B13D800930E4A3E
S315080083A003460E4900201BF058FB94F8403142F270
S315080083B01071002B08BF0021094802B0BDE8104023
S315080083C032F036BD002007491BF047FB02B0BDE876
S315080083D01040C8E7884500202C2206083E220608D9
S315080083E0A4410020482206082DE9F0418EB01AF073
S315080083F091F82F4D06462B1893F8403123B309A858
S315080084001AF050FD022309A88DF8243031F01CF922
S3150800841001AA07469446274B03F1100E144618681E
S315080084205968083303C473452246F7D105AA90460E
S31508008430214B03F1100E144618685968083303C413
S3150800844073452246F7D10FB3012409A81AF0D6F9C5
S3150800845028B9BDF8243013F0020F18BF012435449B
S3150800846095F840311549002B4FF000034FF0A00254
S3150800847008BF194620461AF03FF9A8B995F84031C1
S31508008480013385F840310EB0BDE8F081614609A890
S315080084901AF0C6FB0028D7D1414609A81AF0C0FB36
S315080084A004460028D1D0CFE70EB0BDE8F0416BE70F
S315080084B088450020803706089037060800F8FF0729
S315080084C038B50D4B04461B68A3B11B78032B02D89D
S315080084D0B0F5007F0ED11AF01DF818225043074B4D
S315080084E01A581D1822431A506B681C4202D052F0C3
S315080084F031FDA88238BD00BFD83E002024430020A5
S3150800850010B504461AF006F8182343430249CA5818
S3150800851022EA0402CA5010BD2443002008B5D0E957
S31508008520023253F82230187838B1002006491BF079
S3150800853094FABDE808408020C2E704491BF08DFA8A
S31508008540BDE808408020DBE76A220608872206087D
S3150800855038B51E4B1E4C1B680BB31B78032B17D95B
S3150800856019F0D8FF054652F0F5FC18236B43E218BC
S31508008570918A401A518A80B2814217D319F0ECFECB
S31508008580D0B119F0C7FF182303FB0040C08938BDD6
S3150800859019F0C0FF1823584323589B05E0D419F057
S315080085A0B9FF182303FB0044A068F0E75168E258B6
S315080085B022EA0102E250E1E718235D436359002BE2
S315080085C0DFD1FEF7B7F80128E9D1DAE7D83E00206F
S315080085D0244300202DE9F341464B00200093464BE7
S315080085E0464901931BF039FA0822002044491BF03A
S315080085F034FA444B444A1978444B0020002918BFE2
S315080086001A4643491BF029FA0026DFF8348130461A
S3150800861019F0DEFAD8F80030002B63D01B78022B4D
S3150800862060D95DF8263032463A4900201BF015FA23
S31508008630FA27FFF78DFF3849B0FBF7F200201BF049
S315080086400CFA182519F066FF344C354905FB00402D
S3150800865082680020B2FBF7F21BF0FFF9D8F8003069
S315080086601B78032B3ED919F055FF05FB0040C2893C
S315080086702C49B2FBF7F200201BF0EFF919F04AFF7C
S3150800868005FB0040428A2849B2FBF7F200201BF09E
S31508008690E4F919F03FFF05FB004024494268002031
S315080086A01BF0DBF919F036FF6843214922580020F0
S315080086B01BF0D3F9FEF73EF81E4F1F4907EB800063
S315080086C0D0F87C2100201BF0C8F919F023FF05FB20
S315080086D00044A37D002007EB8307D7F87C211749C0
S315080086E01BF0BBF935F0E0F816B102B0BDE8F08131
S315080086F001268CE70EF305081CF30508A4220608D4
S31508008700C02206088845002055E5050851E50508F4
S31508008710E322060838F30508FF220608244300204A
S3150800872023230608472306086B2306088F23060813
S31508008730B623060824360608DD230608002406089C
S31508008740D83E0020F0B506460D46002485B0CFB2C7
S315080087506946E0B219F054FD98B99DF80030032B2C
S315080087600FD19DF80530BB420BD19DF80630B3EB0F
S31508008770152F06D19DF80130B34202D1012005B06C
S31508008780F0BD0134102CE3D10020F8E72DE9F047BD
S315080087900C6892B0E37B002B40F03782E37C052B14
S315080087A000F23382DFE813F00600F4016E0086015A
S315080087B02C013E002046AE490AAA0CF089FF044661
S315080087C0002840F02282BDF82820AA491BF0A8FDFF
S315080087D00B982FF033FA2046A7491BF03EF94FF6BF
S315080087E0F672BDF82810A54C4B1E9BB2934217D8BB
S315080087F063681B68587935F0B5FA63681B79012BED
S315080088000BD8BDF828300022CDE9000304219C4B83
S31508008810092019F097F919F031FB6FF0FF002CE0E9
S315080088208720EAE7204697490AAA0CF051FF044632
S31508008830002840F0EA81BDF8282093491BF070FD16
S315080088408E4D0B982FF0FAF920468B491BF005F947
S315080088506B681B6858791BF07DF968B14FF6F6729C
S31508008860BDF828104B1E9BB2934209D86B681B684B
S31508008870587935F077FA0446204612B0BDE8F087F5
S315080088808724F9E72046814904AA0CF021FF04460B
S31508008890002840F0BA819DF810207D491BF040FD64
S315080088A025467C4E9DF81020EBB29A4252D80020FD
S315080088B079491BF0D2F89DF81050002D40F09780AA
S315080088C02C462E466D4F06A9F0B219F099FCC8B988
S315080088D09DF81830032B15D17B689DF819201B6865
S315080088E05B799A420ED19DF81D2005F148036B4429
S315080088F003F8202C9DF81E200235013403F81F2C9E
S31508008900EDB2E4B20136102EDDD19DF810300BB170
S31508008910002C73D00AABCDE90143FF2302220421C0
S31508008920009309205D4B039519F00CF919F0A6FA86
S31508008930034600283FF471AF9DF81020002A5BD04B
S31508008940574A5849002C18BF0A46574900201BF0B9
S3150800895084F862E705986B0003F4FF73022200218E
S31508008960184418F0F8FE3146024600201BF0D8FCE1
S31508008970013597E70598730003F4FF730222002177
S31508008980184418F0E8FE0027804606A9F8B219F040
S3150800899037FC10BB9DF81830032B1ED1D9F80430CC
S315080089A09DF819201B685B799A4216D19DF81D100F
S315080089B05FFA88F3994210D19DF81E30C8F3072252
S315080089C09A420AD105F148036B440235013403F88B
S315080089D0201C03F81F2CEDB2E4B20137102FD4D1B6
S315080089E001369DF81020F3B29A42C3D88DE70025C8
S315080089F0DFF888902E46F4E72A4AA6E78B203CE75C
S31508008A001E4F00207B6829491B68002693F80580BD
S31508008A1001241BF022F85FFA86F948460AA919F0DC
S31508008A20EFFB054688B99DF82830032B0DD19DF834
S31508008A302930434509D1484619F0CEFB024680B194
S31508008A4028461B491BF009F82C460136102EE2D1A0
S31508008A507B6800211B685879FFF728FA84F0010023
S31508008A600BE74046BDF82D10FFF720FAEDE700BFEB
S31508008A70A83706085224060876B90508884500204E
S31508008A80202D0608AD37060869240608B2370608F9
S31508008A908D240608E11A060895F90508AC24060887
S31508008AA02324060834240608B0240608D224060817
S31508008AB0151A06082046564906AA0CF009FE044669
S31508008AC0002840F0A280BDF8182052491AF0C5FFC8
S31508008AD04FF6F672BDF81860DFF85481731E9BB224
S31508008AE0934251D8D8F8043031461B6893F805905C
S31508008AF04846FFF727FE002848D025465FFA86FA3B
S31508008B00EFB238460AA919F07BFB80B99DF82830E0
S31508008B10032B0CD19DF82D30534508D19DF82E30E6
S31508008B20B3EB162F03D19DF829304B4503D00135F9
S31508008B30102DE5D1FF27384619F04EFB024620B125
S31508008B40002035491AF089FF0124D8F804301A792B
S31508008B50012A3FF662AE1B68BDF818105879FFF770
S31508008B60A5F9BDF8183003220421CDE900430920F0
S31508008B702A4B18F0E7FF19F081F9034600283FF45D
S31508008B804CAE274A2749E1E68724DEE78B24DCE753
S31508008B9000210D220BA80A914DF094FE2046224989
S31508008BA006AA0CF095FD044678BBBDF818201F49A7
S31508008BB01AF053FF1E4B5A681379012B3FF62DAE58
S31508008BC04FF6F670BDF818104B1E9BB283421AD8A2
S31508008BD013685879FFF7B6FD002808BF8B240AAB3F
S31508008BE00293BDF8183001220421CDE9004309207B
S31508008BF0104B18F0A7FF19F041F9034600283FF477
S31508008C000CAE0D4ABEE78724E9E7812035E600BFAA
S31508008C10B7370608E6240608151A0608202D06089A
S31508008C20FD2406080A250608BA3706083525060863
S31508008C30884500204A2506084E2506082DE9F04FE6
S31508008C401C46C37C95B0DDE91E68049333788946D3
S31508008C50FF2B08BF002387890792027D063FBF1AAC
S31508008C60FF1A03689F4D5B799F4A0693079B00206E
S31508008C7000930B4604990194402918BF2A469B493C
S31508008C801BF04EFB30462EF0D9FFBFB200209849A4
S31508008C901BF046FB414600203A46964B1BF070FBFC
S31508008CA0294600201AF0D9FEB9F1000F40F08F804E
S31508008CB000254FF0FF0AEBB2059309AA2A23294695
S31508008CC0232035F0ADFB9DF82430069A934209D14E
S31508008CD0BDF826204A4505D19DF8282007998A42DD
S31508008CE000F09F80BAF1FF0F03D1059A002B08BF49
S31508008CF092460135032DDED1BAF1FF0F00F07481DB
S31508008D00059509AA2A235146232035F089FB049B99
S31508008D100025402B01BF0A22B4FBF2F202EB8203C4
S31508008D20A4EB430312BF00231446DBB2ADF82A4076
S31508008D308DF82C308DF82D508DF82F508DF8315038
S31508008D408DF834508DF838508DF83C508DF83E50DB
S31508008D508DF840508DF842508DF846508DF84A509F
S31508008D608DF84C50BD425FD3059B9A4527D0069B8C
S31508008D70614C8DF82430079B7F2122208DF82830FE
S31508008D8004F227120123ADF8269035F049FB94F832
S31508008D9027317F210133222084F8273104F2271254
S31508008DA0012335F02BF87F212220012304F2271214
S31508008DB035F036FB94F82711069834F00BFE2A2373
S31508008DC05146232009AA35F019F8002307E0494639
S31508008DD00698FFF7B7FC00287FF46AAF8523464A52
S31508008DE052681279012A17D8049A0093A2F1400111
S31508008DF04A424A410799414BCDE901919201052121
S31508008E00092018F09FFE19F039F8034620B1002012
S31508008E103B4A3C491AF021FE6FF0FF0015B0BDE849
S31508008E20F08FDDF814A06CE7AB1CBB4280F2DE8045
S31508008E309BB218F80360EC1CA4B2002E00F0D28096
S31508008E40A3199F42C0F2D2803A462946404618F0F6
S31508008E5082FCB0F5817F00F0AB8006D806282BD0BF
S31508008E60082835D02644B5B27CE7B0F5407FF9D15D
S31508008E70012EF7D0012321463A4640468DF8313077
S31508008E8018F069FCA6F1020B5FFA8BFB6C1DBBF1AF
S31508008E90010FADF83200A4B20CD901233A46214697
S31508008EA040468DF8343018F056FC049BADF8360071
S31508008EB0402B29D05E46D5E74FF001038DF82D30BB
S31508008EC018F80430003B18BF01238DF82E30C9E787
S31508008ED04FF001038DF82F3018F804308DF8303034
S31508008EE0C0E700BF95F90508A71B06085925060817
S31508008EF08225060899EC0508884500208625060877
S31508008F008A25060894250608331FDBB2EC1D012BBB
S31508008F10A4B265D94FF0010B21463A4640468DF872
S31508008F2038B018F018FC05F10904062EADF83A0019
S31508008F30A4B253D018F80430072E05F10A048DF8A8
S31508008F403CB08DF83D30A4B248D018F80430082E4D
S31508008F5005F10B048DF83EB08DF83F30A4B23DD034
S31508008F6018F8043005F10C048DF84130A6F1090310
S31508008F70DBB25B458DF840B0A4B231D921463A46FA
S31508008F8040468DF842B018F0E6FB0B3EF6B20E35B9
S31508008F905E45ADF84400ACB27FF664AF3A4621466A
S31508008FA040468DF846B018F0D6FBADF8480059E7AC
S31508008FB04FF0010218F80430013E043516F0FF069A
S31508008FC08DF84A208DF84B30ACB23FF44BAF18F809
S31508008FD004308DF84C208DF84D3043E7002641E7E4
S31508008FE01E463FE72546BDE68923F8E68023F6E6D2
S31508008FF02DE9F0410C46036890B0C77C93F80580CC
S3150800900015460B4600927E497E4A0020412F08BF2E
S315080090100A467D491AF021FDC4B900262A2331469D
S31508009020232005AA35F0FCF99DF81430434508D1EC
S31508009030BDF81630A34204D19DF81830AB4200F0B3
S31508009040D9800136032EE9D18B2606E02146404613
S31508009050FFF778FB0028E0D18526412F0CBF412277
S31508009060012205210920CDE90145684B009618F033
S3150800907069FD002E40F0AB80412FBDF81A0001BFF4
S315080090809DF81C3000EB800003EB400398B218F003
S3150800909053FB002018F03CFB9DF81D304BB1062011
S315080090A018F04AFB012018F033FB9DF81E0018F053
S315080090B02FFB9DF81F304BB1082018F03DFB01200F
S315080090C018F026FB9DF8200018F022FB9DF82130A9
S315080090D0002B5ED04FF4407018F02EFB4C4B00204E
S315080090E01C8818F015FB9DF82130002B00F08480B1
S315080090F0BDF82200474D18F01FFB2B5D02332B5598
S315080091009DF8243033B1BDF8260018F015FB2B5D09
S3150800911002332B559DF8283033B1BDF82A0018F0D4
S315080091200BFB2B5D02332B559DF82C3033B19DF884
S315080091302D0018F0EDFA2B5D01332B559DF82E30D6
S3150800914033B19DF82F0018F0E3FA2B5D01332B5548
S315080091509DF8303033B19DF8310018F0D9FA2B5DFF
S3150800916001332B55BDF8340048B19DF83230002B39
S3150800917008BF002018F0E0FA2B5D02332B559DF846
S31508009180363033B1BDF8380018F0D6FA2B5D023305
S315080091902B559DF83A30D3B14FF4817018F0CCFABC
S315080091A01B4B1C4D1C88002018F0B2FA9DF83B009A
S315080091B018F0AEFA2B5D01332B559DF83C3033B1D0
S315080091C09DF83D0018F0A4FA2B5D01332B55124B80
S315080091D05B681B79012B08D818F050FE034620B1AE
S315080091E000200E4A0E491AF038FC6FF0FF0010B046
S315080091F0BDE8F081002630E74FF6FF707AE700BF3A
S31508009200A71B060895F90508BF250608862506083A
S315080092100C440020B443002088450020DE250608BB
S31508009220942506082DE9F04F0C689FB0E37B43B9F7
S31508009230E37C412B00F00881422B04D0402B00F040
S31508009240ED808120A5E02046874905AA0CF040FA62
S3150800925080460028F5D19DF81C309DF8142002930D
S31508009260BDF81A30814901939DF8183002F0010AB9
S315080092700093BDF816301AF0F0FBBDF816107C4DB9
S31508009280002962D1BDF81A1031B16B681B6858798C
S31508009290FFF758FA00285FD04FF0000985242A23E3
S315080092A008AA4946232035F0BBF86B689DF82020AC
S315080092B01B685B799A4242D1BDF82220BDF8163068
S315080092C09A423CD1BAF1000F05D19DF824209DF8A9
S315080092D018309A4233D10026FF245FFA89FBF7B289
S315080092E05F4561D02A2313AA3146232035F098F822
S315080092F06A689DF84C30126852799A424FD1BDF887
S315080093004E10BDF81A20914249D19DF85010BAF175
S31508009310000F41D09DF82420914240D13C46BDF82B
S315080093201A30ADF82230BAF1000F44D02A2321466C
S31508009330232008AA34F062FDA74248D1002409F187
S315080093400109B9F1030FAAD107E06B681B685879C0
S31508009350FFF7F8F9002895D185246B681B79012B4E
S3150800936015D89DF8183042220293BDF8163005210B
S31508009370CDE9004309203F4B18F0E4FB18F07EFDC9
S31508009380034620B100203C4A3C491AF066FB6FF0C0
S31508009390FF001FB0BDE8F08F9DF81C20BCE7FF2C2E
S315080093A002D1002B08BF3C460136032E97D1FF2C6D
S315080093B031D03746B3E79DF81C3021468DF8243066
S315080093C023202A2308AA34F019FDA74221D0012315
S315080093D07F2122202A4A35F023F895F827317F2164
S315080093E001332220264A85F82731012334F006FD69
S315080093F06B687F211B6822205C79214A012335F09E
S315080094000FF8204695F8271134F0E4FABAF1000F60
S3150800941094D14446A1E74FF08908FAE7204619494E
S3150800942013AA0CF055F900287FF40BAF169B2046BB
S315080094300193159B9DF84E200093BDF84C10BDF87E
S315080094405030FFF7FBFBA4E720460F4913AA0CF0A0
S315080094503FF900287FF4F5AE20469DF84E20BDF86A
S315080094604C10FFF7C5FD94E7BD370608E925060841
S3150800947088450020862506081E260608942506081F
S31508009480AF460020C8370608D337060830B502238A
S31508009490002585B0CDE90235CDE9005140232A469D
S315080094A003211AF01DFB044620B10246034928464B
S315080094B01AF0D3FA204605B030BD00BF29260608A3
S315080094C013B50DF106010446FFF7E0FF38B9BDF8FC
S315080094D0061009B1013989B22046FDF7A1FB02B091
S315080094E010BD1FB50B68D87B18B9DA7C1AB1012AEA
S315080094F017D0812013E018461C4903AA0CF0E8F897
S315080095000028F6D11A49BDF80C201AF0A6FA194B0C
S31508009510BDF80C105B681B685879FDF781FB04B031
S3150800952010BD15491AF099FA124B03A95B681B6816
S315080095305879FFF7ABFF044610B9BDF80C300BB9E4
S315080095402046ECE702460321009309200B4B18F04E
S31508009550F9FA18F093FC034620B12046084A09494F
S315080095601AF07BFA6FF0FF00D9E700BFD837060874
S315080095704926060888450020652606087AA00608B2
S31508009580A0FA05087726060810B528B1094830F06C
S31508009590A3FB034660B910BD30F09EFB03460028C6
S315080095A0F9D0054A0020BDE8104004491AF055BA1A
S315080095B0034AF7E7DC370608AD260608B726060885
S315080095C0A4260608034B1A7812B100201870DBE7A8
S315080095D0704700BF54430020034B1A7812B9012084
S315080095E01870D1E7704700BF544300202DE9F041B9
S315080095F00E465249174602780978002A04460CBFD7
S315080096001E232023E6B0002900F0948033447D2BE6
S3150800961000F39280838A4CF6010513F0020F4CF68C
S31508009620014318BF1D460AB945F0200521A817F0C1
S3150800963055FFA3890DF1040888F803301B0A88F83A
S315080096400430A38AA8F800509A0765D5D4F80130E3
S315080096500DF11105CDF80930D4F80530CDF80D30E7
S3150800966019F0A0F921AB2870000A687003CB0B2308
S31508009670AB720023EB722378C5F8020043F00302AD
S315080096800C2B2A7309BF628A05F10D0305F10F0336
S31508009690A5F80D20C5F806101D46228A394625F874
S315080096A0042BE28928465A8032464DF013F9A18ADE
S315080096B0354411F0010138D14FF48A72A5EB08053B
S315080096C021A84DF0FFF82B0603D557211C484EF06C
S315080096D015F94146EAB221A84DF0FCF840F201130B
S315080096E0184821A98DF80351ADF80431FEF756FC48
S315080096F0429CDCB933462246204613491AF010FE2E
S31508009700324639462046114B1AF03AFE2246204682
S315080097100F491AF0A2F909E063890DF10B0588F8DB
S3150800972005301B0A88F806309AE72324204666B0D7
S31508009730BDE8F0810224F9E73824F7E7544300200E
S31508009740E4260608AD0D02086F270608D91C060888
S31508009750892706082DE9F041D0E902439D0054F80F
S31508009760233088B0B3F8008001232C4419466A4692
S3150800977018F00BFCA36800251F88E368224E1C8896
S3150800978040F2DC539C4228BF1C46ABB29C4234D8FC
S31508009790224600201D491AF0C3FD00201C491AF074
S315080097A0BFFD1422002102A84DF08CF84FF6FF7376
S315080097B0ADF812306B4603CB0223ADF81C3040F2ED
S315080097C00913CDF80900CDF80D100F4A214602A855
S315080097D0ADF81630ADF81480ADF81870FFF706FF2F
S315080097E00C49031E0C4A4FF0000008BF0A460B49F5
S315080097F008B0BDE8F0411AF030B919F07BF8013528
S3150800980006F8010BC1E700BFCA460020A3270608D1
S31508009810CB270608932706089B2706085628060816
S3150800982010B5194B0446187886B028B9174906B0FA
S31508009830BDE810401AF011B91622002168464DF00D
S3150800984041F8D4E9022352F8231002EB830358683F
S315080098509B6800880988ADF80C001B886846ADF837
S315080098600E300B4B5B88ADF810309368094A1B78AD
S31508009870672B094B0CBFADF81210ADF80A10198802
S31508009880FFF7B4FE06B010BDBD3E0020D3EE0508B6
S31508009890E83E0020F63E0020F43E002010B51B4BA3
S315080098A00446187886B028B9194906B0BDE81040AC
S315080098B01AF0D3B81622002168464DF003F8D4E909
S315080098C00232013253F8221003EB820309885A68E0
S315080098D0ADF80C1012889B68ADF80E201B88002185
S315080098E043F00203ADF814300A4B20465B88ADF806
S315080098F0103001230DEB030218F047FB064B6846B0
S31508009900064A1988FFF772FE06B010BDBD3E002054
S31508009910D3EE0508E83E0020F43E0020F63E00207F
S31508009920F7B50025244C064631F02AFD16220021FB
S3150800993004F1FE004CF0C6FF204BC4F820571B6804
S315080099401B78013B012B8CBF0127042731F003FD4F
S3150800995094F824370A2B2CD0042094F825270133B1
S3150800996004EB021181F83007154881F82877C1F809
S315080099703407C1F82C670A210132D2B2B2FBF1F0E2
S3150800998001FB10220F4884F8252784F8243731F084
S315080099905FFA0D4B0D4A99680D4B0020B14218BF6E
S315080099A0134600960B4A0C491AF057F8284603B096
S315080099B0F0BD0125EDE700BF88450020D83E002010
S315080099C0759D0008A4420020E47B0020461806087E
S315080099D03E180608D0360608E12706082DE9F041A4
S315080099E00546164C0020164A16491AF036F8164946
S315080099F0164A94F8FD802B46002D08BF0A4694F8AF
S31508009A00146194F81571002011491AF026F8424697
S31508009A10002010491AF021F83B46324600200E492C
S31508009A201AF01BF8002384F8FD3084F8153184F801
S31508009A3014310A48BDE8F04131F003BA88450020E0
S31508009A40D0360608232806080F2806081C28060804
S31508009A503A280608622806087A280608444200209A
S31508009A6007B50A4B93F8FD306BB11720FFF7B6FF21
S31508009A70002300930020064B064A074919F0EDFF1C
S31508009A8003B05DF804FB0223F3E700BF8845002016
S31508009A909E280608D03606085E1A060808B5144A2F
S31508009AA092F8FD30042B0CD192F82631C3F1060347
S31508009AB082F8FD300F4BD86858B1FFF731FF4D20BB
S31508009AC00BE00133DBB203F0FD01092982F8FD3012
S31508009AD004D11720FFF782FF172008BD92F8262128
S31508009AE0002A14BF052206229A42E3D00020F4E792
S31508009AF088450020E47B002037B51A4831F0A1F9E3
S31508009B00194B93F8FD0010F0200114D0002483F8B7
S31508009B10C84731F0E5FB2046144B154A154919F09C
S31508009B209CFF0120FFF75AFF4FF4806003B0BDE8A1
S31508009B303040FEF7E5BC10F0100405D00E4803B01F
S31508009B40BDE8304031F074B90121B42019F09EFF08
S31508009B5005460090094B2046054A094919F07DFF3C
S31508009B602846DFE74442002088450020A328060847
S31508009B70D0360608CC280608E4420020D328060872
S31508009B805E1A060873B5164D95F8C86706BB1548DC
S31508009B9031F057F92EF03CF8044680B1124B00908C
S31508009BA0124A3046124919F058FF95F8FD30DB067F
S31508009BB00ED531F095FB2046FFF710FF08E001238C
S31508009BC00A4A85F8C8370A49074B009019F045FF35
S31508009BD0084B0448596802B0BDE8704031F028B90E
S31508009BE088450020E4420020EC2806081A290608C1
S31508009BF05E1A0608E47B00202DE9F041244C254D29
S31508009C0094F8FD30002005EB8303D3F82031224970
S31508009C1005F1AC0219F021FFFEF7C2FA03461F4F01
S31508009C20DFF8748005F1AC0693B994F8FD301C4A48
S31508009C30042B23D823B393680020C4F8203784F86C
S31508009C40C9072FF01FFDE8B1BDE8F0410120C5E6C0
S31508009C5032463946002019F000FFFFF71FFFA0B96A
S31508009C6094F8FD30324605EB8303D3F8203141469C
S31508009C7019F0F3FEFEF794FA0346D5E7092BDAD076
S31508009C80D368D9E7BDE8F0410CE0BDE8F08100BF34
S31508009C9088450020243606082D2906083A2906088C
S31508009CA0E47B002037B52B4C002094F80221B4F849
S31508009CB0FE30294919F0D1FED4F8202794F802017C
S31508009CC022FA00F010F0010002D1244919F0C5FE6D
S31508009CD094F80231D4F82007D84010F001051FD1B6
S31508009CE094F8C9070130C0B284F8C9072FF0CAFC36
S31508009CF00028EDD028461A4919F0AFFEFFF7CEFE28
S31508009D0030BB03B0BDE8304076E723460020154A4D
S31508009D10154919F0A2FE204603B0BDE830405DE6BD
S31508009D200093B4F8FE3000200E4A104919F095FE4B
S31508009D300F4B1B681878012808BF02202FF0D2FCA9
S31508009D4094F81531013384F8153104460028DCD11E
S31508009D5003B030BD884500206529060896290608FF
S31508009D602F2A0608D0360608062A0608652A06088F
S31508009D70D83E002038B51C4C94F8FD309BB3838937
S31508009D8013F4407F2FD0056835B12A46BDE8384020
S31508009D900020164919F061BE18F0CAFC144A034699
S31508009DA084F814011349284619F057FE94F814311B
S31508009DB013B1BDE838401FE794F8FD30082B05D8E5
S31508009DC0042B05D9BDE83840182007E60A2BF9D038
S31508009DD094F82631C3F1060384F8FD30064BD8689B
S31508009DE0BDE838409CE538BD88450020852A060828
S31508009DF0D0360608B22A0608E47B002004280A465C
S31508009E0004D801461423212034F00ABB7047F0B564
S31508009E100024234D234E244F89B02B88A0B28342B9
S31508009E2001D809B0F0BD03A9FFF7E8FFA2B2314691
S31508009E3000201AF075FA9DF80D2012B39DF812103D
S31508009E40BDF81030402914BF6E2179210020CDE9D4
S31508009E5000313946BDF80E301AF062FABDF8142002
S31508009E601AB1002011491AF05BFA9DF80C00BDF8EA
S31508009E70182060B9079B0E490093BDF81A301AF0EE
S31508009E804FFA00200B4919F0E8FD0134C5E7BDF883
S31508009E901C300020009308499DF81A30EFE700BFF0
S31508009EA098440020D62A0608DC2A0608FF2A06084F
S31508009EB0092B060895F90508302B060830B5002049
S31508009EC087B01E4919F0C9FD00201D4919F0C5FDC6
S31508009ED000201C4919F0C1FD51F041F8002405463F
S31508009EE0A0B201A90134FFF789FF052CF8D151F07A
S31508009EF036F81549421B002019F0AFFD134900201A
S31508009F0019F0ABFD51F02BF8044651F028F80E492C
S31508009F10021B002019F0A1FD0D49002019F09DFD36
S31508009F2051F01DF8044651F01AF8021B00200649A4
S31508009F3007B0BDE8304019F090BD00BF582B0608A1
S31508009F40872B0608B72B0608D42B0608E32B06082A
S31508009F50FD2B060804280A4604D8014614232120A6
S31508009F6033F04CBF70472DE9F04F00274FF0FF360E
S31508009F70DFF89CB0244C87B0BBF80030B8B28342F7
S31508009F8008D8731C3AD03146204807B0BDE8F04FD0
S31508009F9030F04EBF01A9FFF731FF9DF8050017F015
S31508009FA0F7FAF8B19DF80480B8F1000F1AD1BDF898
S31508009FB010A0BDF8129050F0D2FF18210246BBB28D
S31508009FC04B43E018E158007C4FF47A73A2EB010C7E
S31508009FD050B103FB0AF363450ED30B44981A864225
S31508009FE028BF06460137C7E74D466B43FAD0634597
S31508009FF0F5D31944881AF2E74046F0E7034807B054
S3150800A000BDE8F04F30F01DBF2044002084420020F8
S3150800A010984400202DE9F843914618229DF82070AF
S3150800A020DFF8FC80082902FB07821E46D2E90232C5
S3150800A0305ED800242546014488420AD1B9F1380F72
S3150800A04002D0B9F13A0F0FD14846BDE8F84317F0E8
S3150800A0505BBF11F801CD2D0245EA146524021CEBFD
S3150800A060040445F10005E7E7B9F1390F2AD107EEEF
S3150800A070103A07EE904AB4EEE77AF1EE10FACCBF42
S3150800A08077EE677A77EEC77A0025392017EE904A79
S3150800A09017F03AFF336907EE103A07EE904AF4EEE6
S3150800A0A0C77AF1EE10FAACBF01230023012832D19A
S3150800A0B0254333D01823012203FB07831A74BDE80E
S3150800A0C0F84350E79C4275EB02010DD21C1B62EB6C
S3150800A0D00505484617F018FF33699C4275F10003D9
S3150800A0E02CBF01230023E1E7E41A65EB0205F0E73C
S3150800A0F0484617F009FFB9F1380F0FD0B9F13A0FF2
S3150800A1000CD0B9F1390F03D1002433692546C2E7CB
S3150800A11000242546E0E708B9002BCBD1BDE8F88333
S3150800A120204400202DE9F04F4FF0FD0BC9B09A46A8
S3150800A1300DF11B069DF850310DF120080396CDF858
S3150800A14008B0CDF804800593038904460093837903
S3150800A1500F46914641888288407819F0C1FC054629
S3150800A16050B10090A38800206288394919F075FC1F
S3150800A170284649B0BDE8F08F3678A6F14303012B8F
S3150800A18006D8A3886288334919F067FC8D25EFE75E
S3150800A1905A464146304617F0F4FA8346002850D00E
S3150800A1A0529B1BB1BDF84C3198424AD80023A6F100
S3150800A1B04102012A07935FFA8BF124D840460139F8
S3150800A1C0254ADFF89CC05FFA81FE734514DB059BC0
S3150800A1D004210792CBB90DF11C0818221F489FEDE0
S3150800A1E01A7B02FB070420460A460830414684EDDE
S3150800A1F0027B4CF06FFB11E010F8011F0133514050
S3150800A2000CFB01F2E1E7059B33B123463246404693
S3150800A2100097FFF7FFFEABE70829DED9B9F1000F73
S3150800A22001D089F80060BAF1000F01D0AAF800B091
S3150800A230529B002B9CD05A46184608A94CF04AFB5C
S3150800A24096E7012594E700BF000000000000000023
S3150800A2501D2C0608522C0608C59D1C81204400208A
S3150800A2609301000170B50B688AB0DA7B5ABBDC7CB7
S3150800A2704CBB2046154919F0F0FB154B01265B68C7
S3150800A280144D1B6858792FF09FFC2B88A0B2834287
S3150800A29004D8FFF768FE00200AB070BD05A9FFF7CD
S3150800A2A0ADFD9DF8150017F073F950B19DF81430FF
S3150800A2B03BB91A46CDE901360093E1B205A8FFF786
S3150800A2C031FF0134E1E78120E6E700BFAE2C06083E
S3150800A2D088450020984400202DE9F04F00252E4699
S3150800A2E0A8462C46D1B0DFF8DC910495704BA8B28D
S3150800A2F01B88834208D81CB161882079FDF748FD80
S3150800A30051B0BDE8F04F2EE60BA9FFF777FD50F0E8
S3150800A31026FE82469DF82D0017F03AF9002800F02F
S3150800A320C4809DF82C30002B40F0BF8018234FF4D2
S3150800A3307A71AFB27B4359F8030009EB0302BDF803
S3150800A3403830AAEB00004B43834200F2AE80137C00
S3150800A35043B9BDF83A30002B00F0A7804B4383423F
S3150800A36000F2A380FD230022CDE9013210AB009351
S3150800A3700DF119020DF11A03E9B20BA8FFF7D2FE87
S3150800A380002840F08880BDF81AA00AF10302D2B26C
S3150800A3901CB3484B9DF82D101B8813442279914213
S3150800A3A015D1BDF82E106288914210D19DF8322041
S3150800A3B0B8EBD21F0BD1BDF8342004998A4206D1D6
S3150800A3C0B3424DDD00203C4919F047FB01E0B3429A
S3150800A3D0F8DC61882079FDF7DBFC9DF93200374B04
S3150800A3E0C0431C68364BC00F0093BDF834200A23BF
S3150800A3F0BDF82E10C0009DF832802FF0BFFB9DF8E7
S3150800A4002D304FF0000B23714FF48A53FF26E3805B
S3150800A410BDF834304FEAD818049307A95FFA8BF0D1
S3150800A42017F0EEFEC0B2B0B99DF81D209DF82D308C
S3150800A4309A4210D1BDF81E20BDF82E309A420AD194
S3150800A440E2889DF829109DF81C0033F0F7F9B04210
S3150800A45028BF3046C6B20BF1010BBBF1100FDCD199
S3150800A460BDF83000DFF84CB017F066F99DF8190012
S3150800A47017F04EF9BBF8000000EB0A03512B0593C1
S3150800A48009DCDFF844C0524610A960444CF022FAB1
S3150800A490059BABF80030182300225F4309EB07033E
S3150800A4A01A7450F05CFD49F8070001351EE700BF35
S3150800A4B0984400200C440020D12C06083C070020B4
S3150800A4C095F9050820440020B44300202DE9F043FF
S3150800A4D091B069468046FFF791FC0023174F8DF827
S3150800A4E001303888431E98B28045388006D16946BF
S3150800A4F04046FFF72FFD11B0BDE8F0834FF018096D
S3150800A50005A9FFF77BFC0E4C3E880AAD09FB0646FB
S3150800A5100FCE0FC596E8030009FB084485E803003B
S3150800A5200AAE404605A9FFF715FD0FCE0FC495E8FC
S3150800A530030084E8030069463888DAE7984400206F
S3150800A54020440020D0E9023253F8223010B518888A
S3150800A550084B1B8883420BD9FFF7B8FFFFF703FDAB
S3150800A5600023BDE810400020034A044919F075BAD3
S3150800A5702723F6E79844002076C205081CE8050854
S3150800A58038B5064D2C8824B9054830F05AFC2046C3
S3150800A59038BD601E80B2FFF799FFF3E798440020A4
S3150800A5A08442002010B5FFF7EBFFBDE810400346D4
S3150800A5B0024A0020024919F050BA00BFFEC1050838
S3150800A5C01CE8050830B5104C85B094F82457C5B179
S3150800A5D042EA03229DF820308DF8051042EA43220C
S3150800A5E094F8CA378DF80610099904EB03140090FD
S3150800A5F08DF80400D4F8343768460291ADF80C207B
S3150800A600984705B030BD00BF8845002013B51D4CDE
S3150800A6101D4830F016FC94F824378BB394F8CA37E3
S3150800A62004EB031393F83027D3F82C1793F828076D
S3150800A63018F0B6F84D2823D010B30123002194F85A
S3150800A640CA27CDE9003104EB021292F82827C0B2D6
S3150800A650FFF7B8FF0A2294F8CA370B480133DBB272
S3150800A660B3FBF2F102FB113384F8CA3794F82437A6
S3150800A670013B84F8243702B0BDE8104030F0E8BB4F
S3150800A68002B010BD88450020A442002037B51D46FB
S3150800A6909DF81C300093069B17F02AF8044630B143
S3150800A6A000902B460020034A034919F0D6F92046A4
S3150800A6B003B030BDFC2C06082F1D06082DE9F04F07
S3150800A6C00D689FB0EB7B002B40F08C83EB7C062B50
S3150800A6D000F28883DFE813F0070078037001E200D0
S3150800A6E0FC0193001F002846A54913AA0AF0F0FFAB
S3150800A6F0002840F07783169B28460193159B9DF802
S3150800A7004E200093BDF84C10BDF85030FEF796FA6F
S3150800A7101FB0BDE8F08F28469A4906AA0AF0D8FF66
S3150800A7200446002840F05E839749BDF8182019F0C2
S3150800A73094F9BDF81810954E39B173681B685879A5
S3150800A740FEF700F8002808BF852401237F21222070
S3150800A7508F4A33F065FEBDF818300622029396F844
S3150800A76027310521C3F10303CDE900430920894BAD
S3150800A77017F0E8F96CB173681B79012B36D817F016
S3150800A7807DFB034690B3844A0020844919F065F995
S3150800A7902CE025462A2313AA2946232033F040FE17
S3150800A7A077689DF84C203B685B799A420ED1BDF8D4
S3150800A7B04E20BDF818309A4208D104F178039DF866
S3150800A7C050206B44013403F8582CE4B20135032DAC
S3150800A7D0E0D1204616F09CFF002508AEEBB29C425D
S3150800A7E007D83B79012BCAD9002CC8D16FF0FF00D6
S3150800A7F08EE716F8010B16F08BFF0135EEE72846B3
S3150800A800674906AA2E7D0AF063FF0446002840F031
S3150800A810E982AB8904369E42A4BF4FF6FF73ADF8B2
S3150800A8201C30BDF81C30DFF86481009300209DF8C9
S3150800A8301A30BDF818205B4919F00FF9D8F804301A
S3150800A840BDF818601B689DF81A905F79C6B900258F
S3150800A8502A232946232008AA33F0E2FD9DF8203052
S3150800A860BB4208D1BDF82230B34204D19DF824304A
S3150800A8704B4500F0E1820135032DE9D18B2406E032
S3150800A88031463846FDF75EFF0028E0D1852420468C
S3150800A8903EE70137032F40F0E082EFE728464249BA
S3150800A8A008AA0AF015FF0546002840F09B823F4992
S3150800A8B0BDF8202019F0D1F8BDF82010334C002936
S3150800A8C03FD100262A2313AA3146232033F0A8FDB8
S3150800A8D063689DF84C201B685B799A421FD1BDF8C6
S3150800A8E04E20BDF820309A4219D100233146232044
S3150800A8F08DF84C3013AA2A2333F080FA01237F21DE
S3150800A9002220234A33F08CFD94F827317F21013B1E
S3150800A91084F82731222001231D4A33F06FFA0136C5
S3150800A920032ECFD163687F211B6822205E79184ADF
S3150800A930012333F075FD304694F8271133F04AF8B1
S3150800A94007E063681B685879FDF7FCFE0028B8D154
S3150800A950852563681B79012B3FF648AFBDF8203083
S3150800A96003220521CDE900530920114B17F0EAF817
S3150800A97017F084FA034600283FF438AF0D4A03E778
S3150800A980F637060801380608012D0608884500200E
S3150800A990AF4600201F2D0608232D06089425060815
S3150800A9A004380608382D06080B380608622E0608ED
S3150800A9B0202D06087D2E060828463F4908AA0AF0D3
S3150800A9C087FE0546002840F00D823C499DF8223056
S3150800A9D0BDF8202019F041F8BDF82010384C0029A0
S3150800A9E042D100262A2313AA3146232033F018FD24
S3150800A9F063689DF84C201B685B799A4256D1BDF86E
S3150800AA004E20BDF820309A4250D19DF850209DF82E
S3150800AA1022309A424AD1002331468DF84C3013AA87
S3150800AA202A23232033F0EAF901237F212220254A0D
S3150800AA3033F0F6FC94F827317F21013B84F827315F
S3150800AA40222001231F4A33F0D9F963687F211B6846
S3150800AA5022205E791B4A012333F0E2FC304694F843
S3150800AA60271132F0B7FF07E063681B685879FDF7CE
S3150800AA7069FE0028B5D1852563681B79012B3FF649
S3150800AA80B5AE9DF8223002220293BDF8203005218A
S3150800AA90CDE9005309200C4B17F054F817F0EEF9DE
S3150800AAA0034600283FF4A2AE084A6DE60136032E97
S3150800AAB098D18B25E0E700BF0E3806088F2E0608CA
S3150800AAC088450020AF46002086250608AE2E0608D3
S3150800AAD02846C54908AA0AF0FBFD8046002840F02A
S3150800AAE08181DFF850939DF82230BDF82020BF49B8
S3150800AAF018F0B3FFD9F80430BDF820A01B685C79BC
S3150800AB009DF822300593BAF1000F40F02481002603
S3150800AB10FF252A233146232013AA33F081FC9DF80A
S3150800AB204C305FFA86FB9C4209D1BDF84E2052454F
S3150800AB3005D19DF8502005998A4200F03081FF2DF5
S3150800AB4002D1002B08BF5D460136032EE1D1FF2D49
S3150800AB5000F03781B34601272A232946232013AA62
S3150800AB6033F05EFC0DF156030022062100932046C1
S3150800AB709F4B0197FCF768FA16AB002208218DF85F
S3150800AB805500009320469B4B0197FCF75DFA022679
S3150800AB900DF15A0303224FF440718DF857000093C4
S3150800ABA02046954B0196FCF74FFA0DF15E030422F9
S3150800ABB04FF440718DF85900009320468F4B01964B
S3150800ABC0FCF742FA0DF162034FF480424FF44071EC
S3150800ABD08DF85C0000932046894B0196FCF734FA01
S3150800ABE00DF165033A464FF440718DF86000009305
S3150800ABF02046844B0197FCF727FA0DF1670344F2C8
S3150800AC0002024FF440718DF86400009320467E4B93
S3150800AC100197FCF719FA0DF1690344F203024FF4A0
S3150800AC2040718DF8660000932046784B0197FCF733
S3150800AC300BFA1BAB44F204024FF440718DF868001E
S3150800AC4000932046724B0196FCF7FEF91CAB0722CF
S3150800AC508DF86A0000934FF440716E4B20460196BA
S3150800AC60FCF7F2F99DF85C309DF864208DF86E00CB
S3150800AC7013441844C0B2B8421CD9002606AB009348
S3150800AC8008224FF440712046634B01978DF81860EF
S3150800AC90FCF7DAF970B19DF81830BB4200F08180F4
S3150800ACA0022B00F085802BB98DF859308DF85C3071
S3150800ACB08DF86E3001260DF1730308224FF4817169
S3150800ACC000932046554B0196FCF7BEF90DF1750326
S3150800ACD08DF87200009309224FF481712046504B7B
S3150800ACE00196FCF7B1F9AB458DF8740027D0059BA2
S3150800ACF07F218DF85030002322204A4AADF8523081
S3150800AD008DF8543033468DF84C40ADF84EA033F0EC
S3150800AD1087FB99F827317F2133442220414A89F855
S3150800AD202731334633F06AF87F21222033463D4ADD
S3150800AD3033F076FB204699F8271132F04BFE294668
S3150800AD4013AA2A23232033F059F852462046059998
S3150800AD5032F00EFE08E051462046FDF7F3FC0028C7
S3150800AD607FF4D5AE4FF08508D9F804301B79012B4E
S3150800AD703FF63CAD9DF8223004220293BDF8203000
S3150800AD800521CDE900830920274B16F0DBFE17F0D5
S3150800AD9075F8034600283FF429AD244AF4E45D46D5
S3150800ADA0D9E68DF860608DF864608DF86E6081E78D
S3150800ADB08DF860608DF864608DF859608DF85C6078
S3150800ADC078E74FF08908CFE72846194913AA0AF009
S3150800ADD07FFC38B928469DF84E20BDF84C10FEF782
S3150800ADE007F995E4812093E413380608BB2E060874
S3150800ADF05F2D0608662D0608742D06087E2D0608A2
S3150800AE00882D06089D2D0608B02D0608C22D0608B1
S3150800AE10D72D0608E72D0608D92E0608F92D0608A7
S3150800AE201A2E0608AF46002086250608E62E0608CE
S3150800AE301838060888450020D8F80430BDF8186088
S3150800AE401B689DF81A905D7936B131462846FDF79C
S3150800AE5079FC00283FF41AAD00272A233946232017
S3150800AE6013AA33F0DDFA9DF84C30AB427FF411ADEE
S3150800AE70BDF84E30B3427FF40CAD9DF850304B45CB
S3150800AE807FF407AD9DF8553053B1102301930DF1AA
S3150800AE9056030093002206212846624BFFF7F6FB6D
S3150800AEA09DF857304BB12023019316AB009300222F
S3150800AEB0082128465C4BFFF7E9FB9DF859305BB142
S3150800AEC0212301930DF15A03009303224FF4407195
S3150800AED02846564BFFF7DAFB9DF85C305BB1212319
S3150800AEE001930DF15E03009304224FF44071284646
S3150800AEF04F4BFFF7CBFB9DF8603063B121230193DD
S3150800AF000DF1620300934FF480424FF440712846D6
S3150800AF10484BFFF7BBFB9DF864305BB120230193D8
S3150800AF200DF16503009301224FF440712846424B08
S3150800AF30FFF7ACFB9DF8663063B1202301930DF152
S3150800AF406703009344F202024FF4407128463B4BD4
S3150800AF50FFF79CFB9DF8683063B1202301930DF140
S3150800AF606903009344F203024FF440712846344BB8
S3150800AF70FFF78CFB9DF86A305BB1212301931BAB6D
S3150800AF80009344F204024FF4407128462D4BFFF714
S3150800AF907DFB9DF86E3053B1212301931CAB0093C2
S3150800AFA007224FF440712846274BFFF76FFB9DF8A1
S3150800AFB072305BB1202301930DF1730300930822CD
S3150800AFC04FF481712846214BFFF760FB9DF87430DA
S3150800AFD05BB1202301930DF17503009309224FF409
S3150800AFE0817128461A4BFFF751FB324649462846D7
S3150800AFF032F0BEFCD8F804304FF480421B680621B4
S3150800B000587901238DF84C301023009313AB16F0B2
S3150800B0106FFB024600283FF43AAC00200D4918F0B1
S3150800B0201CFD34E45F2D0608662D0608742D0608F7
S3150800B0307E2D0608882D06089D2D0608B02D0608C3
S3150800B040C22D0608D72D0608E72D0608F92D06088D
S3150800B0501A2E06083B2E06082DE980484FF4805024
S3150800B060A9B045F083FF4FF48053CB4CC4F8D407FE
S3150800B070C4F8D837002800F03D83D4F8D4371BB974
S3150800B080DE21C6484CF03AFCD4F8D427C44BC5494F
S3150800B0901A60D4F8D837C4F8DC2723F00103134420
S3150800B0A00B60002A40F03183F821BC484CF026FC9E
S3150800B0B0BD4D1020D5F8FC31C3F3074309931DF0A5
S3150800B0C0E1FD10F0800F4FF0000000F057831DF0EF
S3150800B0D0D9FD02060CD5099B802B40F01C832B6AF0
S3150800B0E013F0020F00F05D83EB699E0740F1598368
S3150800B0F0AE484AF025FA12F067FF0646002840F0E7
S3150800B10050830823AA4A7F214BF234604FF008FE89
S3150800B110012332463546C4F8EC37A64BC4F8E8672F
S3150800B12084F8F8670132082A5D609D8043F8085F55
S3150800B130F8D14FF6FE786FF48037482200219E48F2
S3150800B1404BF0C0FB482200219C48A4F86088C4F84C
S3150800B15054784BF0B7FB7F2200219948A4F8A888B9
S3150800B160C4F89C784BF0AEFB964B84F83C58C4F870
S3150800B1704058C4F8445884F84858C4F84C58C4F899
S3150800B180E038C4F8E45884F8E85812F0C9FB4FF6DA
S3150800B190FF73002184F86C092C2214A8A4F86D39D1
S3150800B1A04BF090FB64234FF002301993CDE9160358
S3150800B1B00B2301218DF87830B4F870398DF85410C6
S3150800B1C0DD0700F1178108464EF010FB0A2384F8C4
S3150800B1D072394FF428737C497C48ADF856303BF0F9
S3150800B1E073F9C4F8740920B940F2592178484CF02B
S3150800B1F085FB0521D4F874094AF0EDF920B140F22F
S3150800B200692173484CF07AFBD4F874093CF0CEFAFD
S3150800B2107049D4F874094AF034FC0C254EF0CCFA7F
S3150800B22068431A904EF0C8FA684314A91890D4F8DF
S3150800B23074093CF083FA20B140F27E2164484CF050
S3150800B2405DFB00225A49D4F874094AF0C4FD20B1BE
S3150800B2504FF420715E484CF051FB40F20353A4F8BA
S3150800B260783905235C4D84F87A3995F924107F29B5
S3150800B27029D14FF6FF730FAAADF83C3041F26400AE
S3150800B28002234FF04DFDBDF83C10CA054CBF6FF0C8
S3150800B2904A0149B2EFF31187302383F31188B4F8D2
S3150800B2A0703985F82410DB0709D5D4F874094AF0F3
S3150800B2B061FB20B140F6376145484CF01FFB87F328
S3150800B2C01188BFF36F8F95F8243084F87B394EF0D8
S3150800B2D073FA00EB80008000A4F87C094EF06CFA43
S3150800B2E00023C0004FF0FF31A4F87E09C4F8803966
S3150800B2F04FF0FF3026A3D3E900234EF031FA374941
S3150800B300D4F874094AF07FFCD4F874090FA94AF0F6
S3150800B31010FC20B140F2B9212D484CF0EFFA042276
S3150800B320D4F874090CA94AF091FA042804D04FF409
S3150800B3302F7127484CF0E2FA0CA82DF065F912F0A7
S3150800B340DDFAEFF31187302383F31188012385F89B
S3150800B3502530B4F87039DD0704D50021D4F874090E
S3150800B3604BF066FA87F31188BFF36F8FB4F870391C
S3150800B370D8073DD5002241F20D01194800234EF0A9
S3150800B380EFF90822D4F8740911464AF023FA29E09D
S3150800B3900A00B0FF42030000884500206BF205084A
S3150800B3A0583F00205C3F00200080E00F690345EC11
S3150800B3B0684D0020804D0020D84D0020204E0020EA
S3150800B3C0744E00200000FFFF45990508F87B002011
S3150800B3D06A2F06081E380608E47B0020B193050884
S3150800B3E0400D030020B140F6F561D0484CF086FACE
S3150800B3F01CF024F900252DF009F93422294614A851
S3150800B40084F884594BF05EFA0B238DF850306FF4AC
S3150800B410803315934FF6FE73ADF8603003238DF82D
S3150800B4206D30C34BC34A1C93C34B51681D93C34B22
S3150800B430D4F8E0072193C24BDFF834932493C14B29
S3150800B440DFF830A3259316ABCDF88890CDF88CA0FD
S3150800B45003C314A928462DF051FB14A901202DF089
S3150800B4604DFB0422284614A94AF0F0F9042803D013
S3150800B470D821B5484CF042FA4FF00008149812F05B
S3150800B4803DFA032032F092FF25F0F8FD9022FF21C5
S3150800B490AE484BF017FA474616F0D8FDAC4D05F105
S3150800B4A0A80B00213C2228464BF00CFA02226F70AA
S3150800B4B02A70AF70EF7012F033FA287312F030FA70
S3150800B4C00522A44B2A7103F14802C4F8C42A03F1E1
S3150800B4D05402C4F8E02A4FF6FF7203F14C01C4F88F
S3150800B4E0C81A03F15001C4F8CC1A03F15201C4F882
